:020000040800F2
:1000000090050020AD0100088D250008711F000833
:1000100089250008A1080008452F000800000000FD
:10002000000000000000000000000000CB250008D8
:10003000A508000800000000C9250008CD2500081B
:10004000C7010008C7010008C7010008C701000870
:10005000C7010008C7010008C7010008C701000860
:10006000FD080008C7010008C7010008C701000813
:10007000C7010008C7010008C7010008C701000840
:10008000C7010008C7010008C70100080000000000
:10009000000000000000000000000000C701000890
:1000A000C7010008C7010008C7010008C701000810
:1000B000C7010008C7010008C7010008C701000800
:1000C000C7010008C7010008C7010008C7010008F0
:1000D000C7010008C7010008C701000800000000B0
:1000E000A9080008C7010008C701000800000000B7
:1000F000000000000000000000000000C701000830
:1001000000000000C7010008C7010008C70100087F
:1001100000000000000000000000000000000000DF
:10012000C7010008C7010008C7010008C70100088F
:10013000C7010008000000000000000000000000EF
:10014000000000000000000000000000C7010008DF
:10015000C7010008C7010008C7010008C70100085F
:10016000C7010008C70100080000000000000000EF
:10017000000000000000000000000000000000007F
:1001800000000000C701000800000000000000009F
:10019000C7010008C7010008DFF80CD000F074FAAE
:1001A00000480047F13A00089005002006488047C3
:1001B00006480047FEE7FEE7FEE7FEE7FEE7FEE74C
:1001C000FEE7FEE7FEE7FEE7892600089901000842
:1001D0002DE9F05F0546002092469B46884606467C
:1001E000814640241BE0284641464746224600F00F
:1001F00082F853465A46C01A914110D31146184608
:10020000224600F069F82D1A67EB01084F46224696
:100210000120002100F060F817EB00094E41201E7C
:10022000A4F10104DFDC484631462A464346BDE8D6
:10023000F09FD2B201E000F8012B491EFBD27047BB
:100240000022F6E710B513460A4604461946FFF7A2
:10025000F0FF204610BD00F0004230F000400AD010
:10026000C10D01F56071C0F3160042EA0151C208E8
:1002700040071143704700200146704730B5041E07
:1002800071F1000404DB4FF00044404264EB0101D3
:10029000141E73F1000405DB1C464FF0004352426C
:1002A00063EB04038B4208BF824230BD30B50B467E
:1002B000014600202022012409E021FA02F59D4296
:1002C00005D303FA02F5491B04FA02F52844151E6A
:1002D000A2F10102F1DC30BD202A04DB203A00FA51
:1002E00002F1002070479140C2F1200320FA03F38D
:1002F000194390407047202A04DB203A21FA02F08B
:100300000021704721FA02F3D040C2F1200291404F
:100310000843194670472DE9FE4F804681EA0300E5
:10032000C00F0C46009021F0004123F00045B8EBCF
:100330000200A94105D24046214690461C460B4684
:10034000024623F00040104347D0270DC7F30A00B0
:10035000C3F30A510290401A019040286BDAC3F3AC
:10036000130040F4801B0098924620B10023D2EB8A
:10037000030A63EB0B0B01985946C0F1400250464B
:10038000FFF7AAFF06460D4650465946019A00F06F
:100390008DF910EB08006141002487EA115284EACC
:1003A000E7731A4340D0009A62B3019A012A4FEAD8
:1003B000075215DC001B61EB02014FF0004202EA1C
:1003C0000752CDE90042001C41F5801132462B4610
:1003D00000F08DF903B0BDE8F08F40462146F9E703
:1003E000001B61EB0201001C41F5801300185B410A
:1003F0002018A2F5001747EB030140EAD570B619A3
:100400006D4111E06D084FEA360645EAC0754FEAC6
:100410000752001B61EB0201001C41F580114908E5
:100420004FEA30000019514132462B4603B0BDE877
:10043000F04F00F04DB90098012240000023D0EBAE
:10044000020263EBE073009821464FEAE074B8EBD8
:10045000000061EB0401E9E783F000435BE781F012
:10046000004158E72DE9FE4F81EA030404F00044FF
:1004700021F0004100944FF0000B23F0004350EABC
:1004800001045ED052EA03045BD0C3F30A54C1F303
:100490000A552C44A4F2F3340194A0FB0254C1F396
:1004A000130141F48011C3F3130343F4801301FBE0
:1004B000024400FB034E840A970A44EA815447EA47
:1004C0008357A4FB076802958D0A05FB07854FEA51
:1004D000932C04FB0C542705029D4FEA065847EA6B
:1004E0001637B5EB08056EEB070C870E920E47EA40
:1004F000811742EA8312A7FB0201B6EB0B0164EB02
:1005000000042B0D43EA0C335E1844EB1C50DA4612
:100510005146E7FB0201C5F313044FEA0B3343EAEC
:1005200014534FEA0432019C43EA0603A4F10C047D
:100530000294009CCDE900B400F0D9F803B0BDE806
:10054000F08F00200146F9E72DE9F04D81EA030420
:1005500004F0004B21F0004514464FF0000A23F050
:10056000004150EA050220D054EA01021DD0C5F333
:100570000A570246C5F31303C1F31300C1F30A5629
:1005800040F4801543F48013A7EB0608101BD646F1
:1005900008F2FD3873EB050002D308F1010801E011
:1005A00092185B41B8F1000F03DA00200146BDE864
:1005B000F08D00204FF48011064684460EE0171B94
:1005C00073EB050705D3121B63EB050306434CEAE7
:1005D000010C49084FEA300092185B4150EA0107CC
:1005E000EDD152EA030012D082EA040083EA050149
:1005F000084305D0101BAB4106D20122002306E0C0
:1006000000224FF0004302E06FF0010253101AEB9A
:1006100006004CEB085110EB0A0041EB0B01BDE862
:10062000F04D00F055B8C1F30A52C1F3130140F286
:10063000FF3341F480119A4202DA002001467047EC
:1006400040F233439A42A2F2334202DC5242FFF7B5
:1006500052BEFFF741BE000030B5041E71F1000428
:1006600004DB4FF00044404264EB0101141E73F1BF
:10067000000405DB1C464FF00043524263EB0403C9
:10068000994208BF904230BD064C074D06E0E06835
:1006900040F0010394E8070098471034AC42F6D3C9
:1006A000FFF77EFDB03D0008D03D0008202A06DBA4
:1006B000CB17203A41FA02F043EAE07306E041FA30
:1006C00002F3D040C2F1200291400843194670471E
:1006D00010B5141E73F1000408DA401C41F100014A
:1006E00092185B411A4301D120F0010010BD2DE9A1
:1006F000F04D92469B4611B1B1FA81F202E0B0FA98
:1007000080F220329046FFF7E7FD04460F4640EAAC
:100710000A0041EA0B0153465A46084313D01146DA
:1007200053EA010019D0C8F140025046FFF7E3FD3B
:1007300005460E46504659464246FFF7CDFD084352
:1007400005D0012004E020463946BDE8F08D0020A8
:10075000054346EAE0762C4337430A986305E40AEA
:10076000A0EB08000022FD0A44EA47540A3002D5F3
:1007700000200146E9E7010510196941DDE9084556
:1007800000196941BDE8F04DA2E700002DE9F041F4
:1007900004460D4616461F4606E0114800684463AD
:1007A0001E2000F0CDF8641E1A2CF6DC4FF4FA700F
:1007B00000F0C6F83A463146284603F0A5F84FF453
:1007C000FA7000F0BDF806E00548006844631E209A
:1007D00000F0B6F8641C492CF6DBBDE8F08100009F
:1007E000D40000202DE9F0412DED028B48272D2467
:1007F00034253B2633462A462146384603F0AAFADA
:1008000000F0B4F91F490968401A642835D300F094
:10081000ADF91C49086004211B4801F0D7FA1B49B7
:100820000860084690ED000AB8EE400ADFED180AAD
:1008300080EE201A174880ED001A90ED000A03F0B0
:10084000BFF814480068FFF706FD41EC180B9FED58
:10085000120B53EC102BFFF711FD0ED23246294636
:10086000204603F01FF84FF4FA7000F069F83346A1
:100870002A4621463846FFF789FFBDEC028BBDE8CA
:10088000F0810000040000209800002000000020FB
:10089000000068420800002000000000000018402E
:1008A00000BFFEE77047000010B5012003F0D0F84C
:1008B0004FF4FA7000F044F8802003F0C9F80BA060
:1008C00003F00AF94FF4FA7000F03AF801E0FFF78C
:1008D00089FF094800680128F9D10020064908600D
:1008E0004FF4005000F042F810BD00004155544F45
:1008F000204D4F44450000002000002010B501208D
:100900000A49086003F0A4F84FF4FA7000F018F8F0
:10091000802003F09DF84FF4FA7000F011F804A065
:1009200003F0DAF8042000F021F810BD20000020C8
:100930004D414E55414C204D4F44450070470000FD
:1009400070B5044600F012F906462546681C10B141
:1009500004480078054400BF00F008F9801BA84255
:10096000FAD370BD2C0000207047000010B504467B
:1009700004480068204020B1024804602046FFF788
:10098000F3FF10BD143C0140F8B503460A460025AC
:10099000002400200021CDE0012606FA01F51668AA
:1009A00006EA0504AC4273D15668022E02D056689E
:1009B000122E13D1CF0803F1200656F827004E0758
:1009C000F70E0F26BE40B0434F07FF0E1669BE401C
:1009D0003043CF0803F1200646F8270018684F007F
:1009E0000326BE40B043167906F003064F00BE4012
:1009F000304318605668012E08D05668022E05D084
:100A00005668112E02D05668122E13D198684F00E6
:100A10000326BE40B0434F00D668BE4030439860C6
:100A2000586801268E40B0431679C6F300168E40F2
:100A300030435860D8684F000326BE40B0434F0093
:100A40009668BE403043D860566806F08056B6F1CE
:100A5000805F6ED100BF00260096384E366846F49F
:100A60008046364F3E603E46366806F48046009625
:100A700000BF00BF324E8F0856F827008E07370F91
:100A80000F26BE40B0432F4EB34202D1002615E0E0
:100A90004FE02D4EB34201D101260FE02B4EB34261
:100AA00001D102260AE02A4EB34201D1032605E015
:100AB000284EB34201D1042600E007268F073F0FDE
:100AC000BE4030431E4E8F0846F82700224E306845
:100AD000A043566806F48036B6F5803F00D1204327
:100AE0001D4E3060361D3068A043566806F400364F
:100AF000B6F5003F00D12043174E361D3060361D3D
:100B00003068A043566806F48016B6F5801F00D101
:100B10002043114E08363060361D3068A0435668B9
:100B200006F40016B6F5001F00D120430A4E0C361D
:100B30003060491C1029FFF42FAFF8BD4438024043
:100B40000838014000000240000402400008024052
:100B5000000C024000100240003C014002461369B4
:100B60000B400BB1012000E00020704701480068F5
:100B7000704700002400002070B5044600260025C0
:100B80000CB9012070BD94F83D0028B9002084F80C
:100B90003C00204600F04EF9242084F83D002068F7
:100BA000006820F001002168086000F025FB054680
:100BB0003948B5FBF0F620684660384960688842DD
:100BC00001D8701C07E04FF4967070434FF47A71AF
:100BD000B0FBF1F0401C216808623049606888422F
:100BE0000ED860684000B5FBF0F0C0F30B0004289D
:100BF00001D204202DE060684000B5FBF0F028E051
:100C0000A06828B9606800EB4000B5FBF0F008E090
:100C1000606800EBC00101EB0010B5FBF0F040F4A0
:100C20008040C0F30B0008B9012012E0A06828B989
:100C3000606800EB4000B5FBF0F008E0606800EB96
:100C4000C00101EB0010B5FBF0F040F4804040F42F
:100C500000402168C861D4E90701084321680860A1
:100C6000D4E90310084321688860D4E905010843EA
:100C70002168C8602068006840F0010021680860B1
:100C800000202064202084F83D000020206384F8A8
:100C90003E0000BF76E7000040420F00A086010042
:100CA0002DE9F8430446894616461F46DDF82080A4
:100CB0000025FFF75BFF054694F83D0020287DD115
:100CC0001923012259492046009501F0F8F910B185
:100CD0000220BDE8F88300BF94F83C00012801D150
:100CE0000220F6E7012084F83C0000BF206800687D
:100CF00000F0010028B92068006840F00100216878
:100D000008602068006820F40060216808602120E5
:100D100084F83D00102084F83E00002020646662C4
:100D200067854348E062608D20852B4642464946F0
:100D3000204601F039F980B1206C042806D100BFAB
:100D4000002084F83C0000BF0120C2E700BF002063
:100D500084F83C0000BF0320BBE700BF00200090E8
:100D600020684069009020688069009000BF00BF43
:100D700046E02A464146204601F035FA60B1206C33
:100D8000042807D12068006840F4007021680860DA
:100D900001209EE703209CE7616A481C6062087896
:100DA00021680861608D401E6085208D401E208571
:100DB00020684069C0F3800078B100E034E0208D05
:100DC00058B1616A481C6062087821680861608DCA
:100DD000401E6085208D401E20852A4641462046C3
:100DE00001F042F960B1206C042807D12068006846
:100DF00040F400702168086001206AE7032068E77A
:100E0000208D0028B5D12068006840F4007021686A
:100E10000860202084F83D00002084F83E0000BFD8
:100E200084F83C0000BF54E7022052E702001000A3
:100E30000000FFFF10B586B00446142101A8FFF79B
:100E4000FFF91B49206888422FD100BF0020009085
:100E50001848006840F0020016490860084600681B
:100E600000F00200009000BF00BFC02001901220DF
:100E7000029001200390032004900420059001A912
:100E80000D48FFF781FD00BF002000900948103099
:100E9000006840F4001007491031086008460068F7
:100EA00000F40010009000BF00BF06B010BD0000AD
:100EB00000540040303802400004024003480068FB
:100EC000034909780844014908607047240000205C
:100ED0002C00002010B50D48006840F400700B494C
:100EE00008600846006840F48060086008460068B2
:100EF00040F480700860032000F0A4F8002000F0A7
:100F000007F800F02BF8002010BD0000003C024064
:100F100070B504460E4800784FF47A71B1FBF0F0DA
:100F20000C490968B1FBF0F5284600F001FC08B156
:100F3000012070BD102C07D200222146501E00F067
:100F400042F80548046001E00120F2E70020F0E7E4
:100F50002C000020300000202800002008B500BF31
:100F6000002000901048006840F480400E4908605E
:100F70000846006800F48040009000BF00BF00BF3A
:100F800000200090081F006840F08050091F086092
:100F90000846006800F08050009000BF00BF0520A8
:100FA00000F050F808BD00004438024000BF00F0D7
:100FB0001F02012191404209920002F1E022C2F891
:100FC000001100BF70472DE9F05F80460D461646C0
:100FD000002701F0DDFA074639462A46334601F07C
:100FE0000700C0F1070ABAF1040F02D94FF0040A52
:100FF00001E0C0F1070AD14600F1040ABAF1070F77
:1010000002D24FF0000A01E0A0F1030AD4464FF0EB
:10101000010A0AFA09FAAAF1010A0AEA020A0AFA14
:101020000CFA4FF0010B0BFA0CFBABF1010B0BEAC6
:10103000030B4AEA0B042146404601F0B1FABDE831
:10104000F09F000000BF00F00702064B19684FF642
:10105000FF031940044B0B4343EA0221014B196083
:1010600000BF70470CED00E00000FA0570B50446C3
:101070000D460CB9012070BD5848006800F00F0003
:10108000A84209D255490D700846006800F00F00CB
:10109000A84201D00120EEE7207800F002000228EB
:1010A0001DD1207800F00400042805D14C480068C8
:1010B00040F4E0504A490860207800F00800082811
:1010C00005D14748006840F46040454908604448FD
:1010D000006820F0F000A1680843414908602078CA
:1010E00000F00100A8B36068012807D13C48083827
:1010F0000068C0F34040B8B90120BCE7606802282E
:1011000002D06068032807D1354808380068C0F36A
:10111000406048B90120AEE7314808380068C0F3A4
:10112000400008B90120A6E72D48006820F0030020
:10113000616808432A490860FFF718FD064609E080
:10114000FFF714FD801B41F28831884202D9032049
:1011500091E707E02248006800F00C006168B0EBFE
:10116000810FEDD11D48006800F00F00A84209D999
:101170001A490D700846006800F00F00A84201D01F
:10118000012078E7207800F00400042807D11448F3
:10119000006820F4E050E1680843114908602078B5
:1011A00000F00800082808D10D48006820F46040CD
:1011B000216940EAC1000A49086000F03DF8084989
:1011C0000968C1F30311074A515CC8400649086029
:1011D0000020FFF79DFE00204DE70000003C02408C
:1011E00008380240983D000830000020014800689F
:1011F000704700003000002000B5FFF7F7FF0449FA
:101200000968C1F38221034A515CC84000BD000057
:1012100008380240A83D000800B5FFF7E7FF044981
:101220000968C1F34231034A515CC84000BD000067
:1012300008380240A83D00082DE9F04700240025A9
:101240000026A1462548006800F00C0020B10428C3
:1012500005D008283AD105E0DFF8849039E0DFF8BE
:10126000849036E01D48001F006800F03F041B48D2
:10127000001F006800F4800078B11A481749091F60
:101280000968C1F38811A0FB0170014622460023C2
:101290003846FEF79DFF05460EE011480F49091F2D
:1012A0000968C1F38811A0FB0170014622460023A2
:1012B0003846FEF78DFF05460848001F0068C0F35A
:1012C0000140401C4600B5FBF6F902E0DFF8109043
:1012D00000BF00BF4846BDE8F08700000838024064
:1012E0000024F40040787D01F8B504460CB90120D3
:1012F000F8BD207800F00100002874D0F94800689B
:1013000000F00C0004280DD0F648006800F00C0036
:10131000082813D1F348001F006800F48000B0F5DE
:10132000800F0BD1EF4808380068C0F34040002818
:1013300059D06068002856D10120D9E700BF606805
:10134000B0F5803F08D1E7480838006840F48030A5
:10135000E449083908601EE06068B0F5A02F0DD19F
:10136000E0480838006840F48020DE490839086009
:101370000846006840F4803008600CE0D94808381E
:10138000006820F48030D7490839086008460068B2
:1013900020F48020086000BF606890B1FFF7E6FB92
:1013A000054606E0FFF7E2FB401B642801D9032055
:1013B0009EE7CC4808380068C0F340400028F1D0D0
:1013C00011E0FFF7D3FB054606E0FFF7CFFB401B1C
:1013D000642801D903208BE7C24808380068C0F3AD
:1013E00040400028F1D1207800F0020002285FD1AF
:1013F000BC48006800F00C0058B1BA48006800F022
:101400000C0008281CD1B748001F006800F48000B9
:10141000B0B9B44808380068C0F3400020B1E068B3
:10142000012801D0012063E7AE480838006820F0A9
:10143000F800216940EAC100AA490839086037E08C
:10144000E06800B30120A8490860FFF78FFB05465C
:1014500006E0FFF78BFB401B022801D9032047E77A
:10146000A04808380068C0F340000028F1D09D482B
:101470000838006820F0F800216940EAC100994965
:101480000839086014E0002097490860FFF76EFBF8
:10149000054606E0FFF76AFB401B022801D903203E
:1014A00026E7904808380068C0F340000028F1D1D2
:1014B000207800F0080008282CD16069A8B101202C
:1014C0008A490860FFF752FB054606E0FFF74EFB2E
:1014D000401B022801D903200AE782486C300068CB
:1014E000C0F340000028F1D014E000207F490860DC
:1014F000FFF73CFB054606E0FFF738FB401B0228E0
:1015000001D90320F4E677486C300068C0F340004E
:101510000028F1D1207800F00400042870D10026C2
:1015200070483830006800F0805090B900BF00204B
:1015300000906C483830006840F08050694938317C
:1015400008600846006800F08050009000BF00BFAF
:1015500001266748006800F48070B0B964480068EC
:1015600040F4807062490860FFF700FB054606E022
:10157000FFF7FCFA401B022801D90320B8E65C48BB
:10158000006800F480700028F2D000BFA068012835
:1015900008D154486830006840F001005149683172
:1015A00008601DE0A06805280DD14E48683000682D
:1015B00040F004004B49683108600846006840F07C
:1015C000010008600CE047486830006820F0010026
:1015D0004449683108600846006820F0040008604B
:1015E00000BFA068A8B1FFF7C1FA054609E0FFF700
:1015F000BDFA401B41F28831884202D9032077E6C8
:1016000026E0384868300068C0F340000028EED07B
:1016100013E0FFF7ABFA054608E0FFF7A7FA401B17
:1016200041F28831884201D9032061E62D486830B3
:101630000068C0F340000028EFD1012E07D12948EF
:101640003830006820F0805026493831086000BFEB
:10165000A069B8B32348006800F00C0008285ED0E9
:10166000A069022846D100201F490866FFF77EFACC
:10167000054606E0FFF77AFA401B022801D903204D
:1016800036E6184808380068C0F340600028F1D1F9
:10169000D4E907010843616A40EA81110122A06A86
:1016A000C2EB500041EA00412C20005D41EA00609D
:1016B0000C49091F086001200B490866FFF756FA1C
:1016C000054607E02DE0FFF751FA401B022801D93B
:1016D00003200DE6034808380068C0F34060002886
:1016E000F1D01EE00838024000004742800E474219
:1016F0000070004000200C490866FFF737FA0546E5
:1017000006E0FFF733FA401B022801D90320EFE57A
:1017100006480068C0F340600028F2D101E00120D3
:10172000E6E50020E4E50000000047420038024002
:1017300070B504462546681EB0F1807F01D30120B4
:101740000FE0681E4FF0E02148610F214FF0FF309D
:1017500000F026FF00204FF0E0218861072008619B
:10176000002070BD024600BF92F83800012801D168
:1017700002207047012082F8380000BF022082F862
:1017800039001068406820F07000136858601068D5
:1017900040680B681843136858601068806820F030
:1017A000800013689860106880684B68184313685D
:1017B0009860012082F8390000BF002082F83800CC
:1017C00000BF00BFD5E710B504460CB9012010BD1D
:1017D00094F8390028B9002084F83800204600F039
:1017E0000DF8022084F83900211D206800F07EFFEA
:1017F000012084F839000020E9E7000010B586B028
:101800000446142101A8FEF71BFD304920688842D8
:1018100030D100BF002000902D48006840F001004A
:101820002B4908600846006800F00100009000BFE6
:1018300000BF00BF0020009025481438006840F029
:1018400001002349143908600846006800F00100CF
:10185000009000BF00BF4FF4407001900220029042
:101860000020039004900120059001A91948FFF77A
:101870008BF829E018492068884211D100BF002068
:1018800000901348001F006840F002001049091F33
:1018900008600846006800F00200009000BF13E0F6
:1018A0000E49206888420FD100BF002000900848F0
:1018B000006840F48020064908600846006800F48B
:1018C0008020009000BF00BF06B010BD00000140A6
:1018D000443802400000024000040040004801403B
:1018E0000146022081F839000868006840F00100D4
:1018F0000A681060012081F83900002070472DE946
:10190000F04104460D46002600BF94F83800012837
:1019100002D10220BDE8F081012084F8380000BF28
:10192000022084F839002068866826F0770626F4BD
:101930007F4620688660286850283BD00CDC202831
:1019400060D004DC002853D0102865D155E0302841
:101950005DD0402860D141E0602835D070280DD09E
:10196000B0F5805F03D0B0F5005F55D115E0206879
:10197000806820F00700216888604EE0D5E90213F6
:101980006A68206800F018FF2068866826F07706ED
:1019900046F07706206886603FE0D5E902136A6862
:1019A000206800F009FF2068806840F480402168CA
:1019B000886032E0EA686968206801F031F85021F7
:1019C000206800F005FF28E0EA686968206801F0F7
:1019D0007FF86021206800F0FBFE1EE0EA6869687D
:1019E000206801F01DF84021206800F0F1FE14E0AD
:1019F0000021206800F0ECFE0FE01021206800F0CC
:101A0000E7FE0AE02021206800F0E2FE05E0302138
:101A1000206800F0DDFE00E000BF00BF012084F878
:101A2000390000BF002084F8380000BF00BF71E714
:101A30002DE9F04104460D46164600BF94F83800E3
:101A4000012802D10220BDE8F081012084F838008D
:101A500000BF022084F8390096B9EB68D5E900127E
:101A6000206800F0F3FF2068806920F00C002168F6
:101A7000886120688069A9680843216888613DE021
:101A8000042E13D1EB68D5E90012206801F036F876
:101A90002068806920F4406021688861206880693E
:101AA000A96840EA01202168886127E0082E12D148
:101AB000EB68D5E90012206801F03FF82068C069A2
:101AC00020F00C002168C8612068C069A96808433B
:101AD0002168C86112E0EB68D5E90012206801F0C6
:101AE0004AF82068C06920F440602168C861206815
:101AF000C069A96840EA01202168C861012084F812
:101B0000390000BF002084F8380000BF00BF9AE70A
:101B100010B504460CB9012010BD94F8390028B95D
:101B2000002084F83800204600F00CF8022084F8E9
:101B30003900211D206800F0D9FD012084F839000A
:101B40000020E9E7704730B504460D4601222946DA
:101B5000206800F023FE2068006840F00100216842
:101B60000860002030BD000010B586B00446142186
:101B700001A8FEF765FB30492068884239D100BFD3
:101B8000002000902D48006840F001002B490860BB
:101B90000846006800F00100009000BF00BF00BFD1
:101BA000002000900846006840F0020008600846E7
:101BB000006800F00200009000BF00BFC02001904C
:101BC000022002900020039004900220059001A9B9
:101BD0001B48FEF7D9FE032001900220029000204E
:101BE000039004900220059001A91648FEF7CCFE50
:101BF00020E01549206888421CD100BF00200090D9
:101C00000E48006840F002000C4908600846006871
:101C100000F00200009000BF00BF481501900220B4
:101C200002900020039004900320059001A905482C
:101C3000FEF7AAFE06B010BD000400403038024096
:101C400000000240000402400048014070B5044614
:101C50000D46164600BF94F83800012801D1022035
:101C600070BD012084F8380000BF022084F83900DC
:101C700036B1042E1BD0082E31D00C2E5ED145E09B
:101C80002946206800F0AEFD2068806940F0080019
:101C9000216888612068806920F0040021688861DB
:101CA00020688069296908432168886147E02946DE
:101CB000206800F0C9FD2068806940F40060216858
:101CC00088612068806920F48060216888612068CC
:101CD0008069296940EA0120216888612FE029464E
:101CE000206800F0E9FD2068C06940F00800216824
:101CF000C8612068C06920F004002168C8612068BC
:101D0000C069296908432168C86118E0294620682C
:101D100000F008FE2068C06940F400602168C861D6
:101D20002068C06920F480602168C8612068C069AB
:101D3000296940EA01202168C86100E000BF00BFB6
:101D4000012084F8390000BF002084F8380000BF6B
:101D500000BF85E710B504460CB9012010BD94F80A
:101D6000390028B9002084F83800204600F00CF82B
:101D7000022084F83900211D206800F0B7FC012002
:101D800084F839000020E9E77047000030B50446C8
:101D90000D4601222946206800F000FD0A4920680E
:101DA000884201D1012000E0002028B12068406C69
:101DB00040F40040216848642068006840F0010059
:101DC00021680860002030BD000001400246002369
:101DD00000BF92F83800012801D10220704701208D
:101DE00082F8380000BF31B1042907D0082908D093
:101DF0000C290CD108E01068436B09E01068836B74
:101E000006E01068C36B03E01068036C00E000BFDD
:101E100000BF00BF002082F8380000BF1846DDE791
:101E200070B504460D4600BF94F83800012801D172
:101E3000022070BD012084F8380000BF022084F821
:101E400039002946204600F099FD2068C06820F03E
:101E500040002168C8602068C06820F48040216884
:101E6000C860012084F8390000BF002084F83800E1
:101E700000BF00BFDDE710B504460CB9012010BD5E
:101E8000A06900B100E000BF94F8390028B9002033
:101E900084F83800204600F027F8242084F8390020
:101EA0002068C06820F400502168C860204600F017
:101EB00083FE2068006920F4904021680861206852
:101EC000406920F02A00216848612068C06840F419
:101ED00000502168C8600020E063202084F83900A9
:101EE00084F83A000020CAE710B586B004461421F1
:101EF00001A8FEF7A5F91B49206888422FD100BF31
:101F0000002000901848006840F40030164908602E
:101F10000846006800F40030009000BF00BF00BF1A
:101F20000020009010481038006840F001000E4971
:101F3000103908600846006800F00100009000BFFA
:101F400000BF0C200190022002900120039003208A
:101F500004900720059001A90448FEF715FD06B07E
:101F600010BD000000440040403802400000024024
:101F700000BFFEE7014608684069C0F3802088B1D1
:101F80006FF480600A6850610420086400200863D0
:101F9000202081F83D0000BF002081F83C0000BFF8
:101FA000012070470020FCE72DE9F84304460D4668
:101FB00017469846E66A042E04D0012E02D016F584
:101FC000803F06D12068006840F480702168086076
:101FD00008E0206B122805D12068006840F480706A
:101FE000216808603B4600224FF001112046CDF8E1
:101FF000008000F064F810B10320BDE8F883206988
:10200000B0F5804F04D105F0FE002168086117E0AB
:1020100005F44070F02141EAE01021680861434670
:102020003A461049204600F088F830B1206C042868
:1020300001D10120E1E70320DFE7E8B22168086170
:1020400043463A460749891F204600F076F830B1EA
:10205000206C042801D10120CFE70320CDE7002028
:10206000CBE700000800010070B504460D46164697
:102070001DE02046FFF77EFF08B1012070BD681CFF
:10208000A8B125B1FEF772FD801BA8420FD9206CC4
:1020900040F02000206400202063202084F83D00D0
:1020A00000BF002084F83C0000BF0320E6E7206862
:1020B0004069C0F380000028DBD00020DEE72DE976
:1020C000F04104460D4617461E46DDF8188017E01D
:1020D000701CA8B12EB1FEF749FDA0EB0800B0427C
:1020E0000ED900202063202084F83D00002084F8D1
:1020F0003E0000BF84F83C0000BF0320BDE8F08133
:10210000C5F3074001280AD120684069A9B20840F8
:10211000A9B2884201D101200BE0002009E020682B
:102120008069A9B20840A9B2884201D1012000E02B
:102130000020B842CCD00020E0E72DE9F041044671
:102140000D4616461F4631E020684069C0F38020E6
:10215000C0B12068006840F40070216808606FF426
:1021600080602168486104202064002020632020D2
:1021700084F83D0000BF002084F83C0000BF01202F
:10218000BDE8F081701C88B126B1FEF7EFFCC01BE2
:10219000B0420BD900202063202084F83D0000BF0E
:1021A000002084F83C0000BF0320E9E7C5F30740A6
:1021B00001280AD120684069A9B20840A9B2884222
:1021C00001D101200BE0002009E020688069A9B25C
:1021D0000840A9B2884201D1012000E00020002877
:1021E000B2D00020CCE770B504460D4616461DE07F
:1021F0002046FFF7BFFE08B1012070BD681CA8B1E2
:1022000025B1FEF7B3FC801BA8420FD9206C40F02B
:102210002000206400202063202084F83D0000BFBF
:10222000002084F83C0000BF0320E6E720684069F6
:10223000C0F3C0100028DBD00020DEE700B587B077
:10224000142102A8FDF7FCFF00BF002001902E48DA
:10225000006840F004002C4908600846006800F05F
:102260000400019000BF00BF00BF0020019008469D
:10227000006840F0010008600846006800F00100B6
:10228000019000BF00BF00BF002001900846006819
:1022900040F0020008600846006800F0020001906B
:1022A00000BF00BF4FF40050029018480390002078
:1022B000049002A91648FEF767FB40F2CF10029087
:1022C00000200390049002A91148FEF75DFB042052
:1022D0000290104803900020049002A90E48FEF7D7
:1022E00053FB002201210820FEF76DFE0820FEF7B7
:1022F0005DFE002202212820FEF765FE2820FEF761
:1023000055FE07B000BD000030380240000021102B
:1023100000080240000011100004024010B50B48F4
:102320000B4908600B484860002109488160C16082
:102330004FF480410161002141618161C16101620D
:10234000FEF71AFC08B1FEF7F9FA10BD0054004080
:1023500044000020A086010000B587B01C2168461B
:10236000FDF76EFF154816490860C7204860002138
:102370001348816049F63F41C16000210161FFF7C8
:1023800022FA08B1FEF7DAFA0D48FFF7E3FC08B1CC
:10239000FEF7D4FA60200090002001900290049093
:1023A000002269460648FFF751FC08B1FEF7C6FA5D
:1023B0000348FFF7D9FB07B000BD0000004801400B
:1023C0001001002000B58BB0142106A8FDF738FFDE
:1023D0000020049005900090019002900390254801
:1023E00025490860632048600021234881604FF63A
:1023F000FF71C160002101614161FFF7E4F908B19B
:10240000FEF79CFA1C48FFF783FB08B1FEF796FA2B
:1024100004200690602007900A20089000200A906F
:1024200006A91548FFF7FCFC08B1FEF787FA002063
:102430000490059004A91048FFF794F908B1FEF73D
:102440007DFA0A2000900120019000200290039064
:10245000002269460848FFF7EBFA08B1FEF76EFA6A
:10246000042269460448FFF7E3FA08B1FEF766FA6A
:102470000BB000BD000001409800002000B58DB0F9
:10248000002009900A900B900C90079008901C2156
:102490006846FDF7D5FE2C482C49086040F2CF7005
:1024A00048600021294881604FF47A71C1600021A1
:1024B0000161FFF788F908B1FEF740FA4FF4805048
:1024C000099009A92148FFF71AFA08B1FEF736FA70
:1024D0001E48FFF73FFC08B1FEF730FA00200790D6
:1024E000089007A91948FFF73DF908B1FEF726FA49
:1024F0006020009000200190029004900022694624
:102500001248FFF7A3FB08B1FEF718FA0422694648
:102510000E48FFF79BFB08B1FEF710FA0822694648
:102520000A48FFF793FB08B1FEF708FA0C22694648
:102530000648FFF78BFB08B1FEF700FA0348FFF7E8
:1025400013FB0DB000BD000000040040D4000020CB
:1025500010B50B480B4908604FF4E130486000218A
:1025600008488160C16001610C21416100218161E5
:10257000C161FFF780FC08B1FEF7E0F910BD000073
:10258000004400404C01002000BFFEE770470000FF
:1025900002480068C0F30220704700000CED00E024
:1025A00010B5002807DA0A07140E054A00F00F03D9
:1025B0001B1FD45403E00A07130E024A135410BD24
:1025C00018ED00E000E400E07047704710B5FEF73A
:1025D00075FC10BD00B593B0302107A8FDF730FEA3
:1025E000142102A8FDF72CFE00BF00200190244812
:1025F000006840F08050224908600846006800F0FA
:102600008050019000BF00BF00BF002001901D4816
:10261000006840F440401B4908600846006800F428
:102620004040019000BF00BF0220079001200A90A7
:1026300010200B9002200D9000210E9108210F9187
:1026400064211091022111910421129107A8FEF733
:102650004BFE08B1FEF772F90F20029002200390A2
:10266000002004904FF48050059000200690032134
:1026700002A8FEF7FBFC08B1FEF760F913B000BD3D
:1026800040380240007000401448006840F4700078
:10269000124908601248006840F0010010490860C3
:1026A00000200F49083108600D4800680D490840B6
:1026B0000B4908600C48091D0860081F006820F4D9
:1026C0008020091F0860002005490C3108604FF088
:1026D00000600249803908607047000088ED00E022
:1026E00000380240FFFFF6FE10300024002202688E
:1026F000234B98420BD0B0F1804F08D0214B984229
:1027000005D0214B984202D0204B984201D10123A1
:1027100000E000231BB122F070024B681A43184BF3
:10272000984214D0B0F1804F11D0164B98420ED081
:10273000154B98420BD0154B984208D0144B984239
:1027400005D0144B984202D0134B984201D101237B
:1027500000E000231BB122F44072CB681A430260F0
:102760008B68C3620B688362054B984201D10123D9
:1027700000E000230BB10B69036301234361704741
:10278000000001400004004000080040000C004030
:1027900000400140004401400048014030B50023A2
:1027A000012404FA01F3046A9C430462046A02FAF5
:1027B00001F52C43046230BD30B50C460021816820
:1027C00021F47F4142EA032525432943816030BD3E
:1027D0000A460021816821F0700142F00703194385
:1027E0008160704730B5002400220023056A25F07F
:1027F00001050562026A4368846924F0700424F0CC
:1028000003040D682C4322F002028D682A430D4D0B
:10281000A84201D1012500E000256DB122F0080297
:10282000CD682A4322F0040223F4807323F400735A
:102830004D692B438D692B43436084614D6845632B
:10284000026230BD0000014030B5002400220023A8
:10285000056A25F010050562026A4368846924F45C
:10286000E04424F440740D6844EA052422F0200278
:102870008D6842EA05120F4DA84201D1012500E002
:10288000002585B122F08002CD6842EA051222F0CF
:10289000400223F4806323F400634D6943EA850317
:1028A0008D6943EA8503436084614D6885630262F4
:1028B00030BD00000000014030B50024002200239C
:1028C000056A25F480750562026A4368C46924F0CC
:1028D000700424F003040D682C4322F400728D6808
:1028E00042EA05220E4DA84201D1012500E0002553
:1028F00085B122F40062CD6842EA052222F48062AA
:1029000023F4805323F400534D6943EA05138D6982
:1029100043EA05134360C4614D68C563026230BD7C
:102920000000014030B5002200230024056A25F490
:1029300080550562036A4468C26922F4E04222F4C9
:1029400040720D6842EA052223F400538D6843EA81
:102950000533094DA84201D1012500E0002525B12C
:1029600024F480444D6944EA85144460C2614D6892
:102970000564036230BD0000000001402DE9F04114
:1029800004460D4600260027B0462068866826F0DB
:1029900070066868064326F0070628680643206824
:1029A0008660686800F00F01002935D10011082801
:1029B00032D2DFE800F02D2E2F300B212704D5E98D
:1029C0000313AA682068FFF7F7FE26E02068D0F816
:1029D00020802068006A20F00100216808622068D9
:1029E000876927F0F007286947EA001720688761A0
:1029F0002068C0F8208010E02A69A968206800F0EB
:102A00000FF80AE02A69A968206800F061F804E07C
:102A100003E002E001E000E000BF00BFBDE8F0819C
:102A200030B50B46144600210022026A056A25F0E3
:102A300001050562816921F0F00141EA041122F0EB
:102A40000A021A438161026230BD000070B50C4673
:102A5000154600210022066A26F0010606628169F9
:102A6000026A164EB0420ED0B0F1804F0BD0144E19
:102A7000B04208D0134EB04205D0134EB04202D03F
:102A8000124EB04201D1012600E000261EB121F015
:102A90000301294303E021F0030141F0010121F08A
:102AA000F001F02606EA0316314322F00A0204F090
:102AB0000A0632438161026270BD000000000140DD
:102AC0000004004000080040000C004000400140AD
:102AD00030B50B46144600210022056A25F010058A
:102AE00005628169026A21F4704141EA043122F0F1
:102AF000A00242EA03128161026230BD70B50C4649
:102B0000154600210022066A26F010060662816939
:102B1000026A21F4407141EA052121F470414FF429
:102B2000704606EA0336314322F0A002A02606EAE8
:102B3000041632438161026270BD70B50C461546C1
:102B400000210022066A26F480760662C169026AC4
:102B500021F00301294321F0F001F02606EA0316D3
:102B6000314322F420624FF4206606EA0426324301
:102B7000C161026270BD70B50C461546002100228D
:102B8000066A26F480560662C169026A21F4407121
:102B900041EA052121F470414FF4704606EA0336FC
:102BA000314322F420424FF4204606EA04363243F1
:102BB000C161026270BD00002DE9F04104460025AC
:102BC0002068056925F44055E068054320680561E3
:102BD0002068C56849F20C6085432169A0680843F4
:102BE00061690843E169084305432068C5602068BE
:102BF000456925F44075A069054320684561E06991
:102C0000B0F5004F7ED1C4492068884203D0C34943
:102C1000206888425DD1FEF7FFFA00EBC00101EBAE
:102C2000001061684900B0FBF1F06421B0FBF1F0E5
:102C30000601FEF7F1FA00EBC00101EB001061683C
:102C40004900B0FBF1F7FEF7E7FA00EBC00101EB3A
:102C5000001061684900B0FBF1F06421B0FBF1F0B5
:102C600000EBC00101EB0010A7EB8000322101EB6B
:102C7000C0006421B0FBF1F000F0F80006EB400664
:102C8000FEF7CAFA00EBC00101EB001061684900D1
:102C9000B0FBF1F7FEF7C0FA00EBC00101EB00104A
:102CA00061684900B0FBF1F06421B0FBF1F000EB8A
:102CB000C00101EB0010A7EB8000322101EBC00046
:102CC0006421B0FBF1F000F0070030442168886017
:102CD00020E1FEF791FA00EBC00101EB0010616802
:102CE0004900B0FBF1F06421B0FBF1F00601FEF702
:102CF00083FA00EBC00101EB001061684900B0FBF2
:102D0000F1F700E045E0FEF777FA00EBC00101EBD8
:102D1000001061684900B0FBF1F06421B0FBF1F0F4
:102D200000EBC00101EB0010A7EB8000322101EBAA
:102D3000C0006421B0FBF1F000F0F80006EB4006A3
:102D4000FEF75AFA00EBC00101EB00106168490080
:102D5000B0FBF1F7FEF750FA00EBC00101EB0010F9
:102D600061684900B0FBF1F06421B0FBF1F000EBC9
:102D7000C00101EB0010A7EB8000322101EBC00085
:102D80006421B0FBF1F000F0070030442168886056
:102D9000C0E061492068884203D0604920688842C9
:102DA0005CD1FEF739FA00EBC00101EB001061685D
:102DB0008900B0FBF1F6FEF72FFA00EBC00101EB42
:102DC000001061688900B0FBF1F06421B0FBF1F004
:102DD00000EBC00101EB0010A6EB8000322101EBFB
:102DE00000106421B0FBF1F000F0F006FEF714FAD9
:102DF00000EBC00101EB001061688900B0FBF1F04D
:102E00006421B0FBF1F006EB0016FEF705FA00EBCB
:102E1000C00101EB001061688900B0FBF1F7FEF71B
:102E2000FBF900EBC00101EB001061688900B0FB09
:102E3000F1F06421B0FBF1F000EBC00101EB0010F8
:102E4000A7EB8000322101EB00106421B0FBF1F010
:102E500000F00F003044216888605BE0FEF7CCF999
:102E600000EBC00101EB001061688900B0FBF1F6D6
:102E7000FEF7C2F900EBC00101EB001061688900A8
:102E8000B0FBF1F06421B0FBF1F000EBC00101EB0D
:102E90000010A6EB8000322101EB00106421B0FB92
:102EA000F1F000F0F006FEF7A7F900EBC00101EB2E
:102EB000001061688900B0FBF1F06421B0FBF1F013
:102EC00006EB0016FEF798F900EBC00101EB0010CD
:102ED00061688900B0FBF1F7FEF78EF900EBC001E5
:102EE00001EB001061688900B0FBF1F06421B0FBD8
:102EF000F1F000EBC00101EB0010A7EB80003221E4
:102F000001EB00106421B0FBF1F000F00F00304441
:102F100021688860BDE8F081001001400014014084
:102F200070B505460C4606480068C5630A20FDF7E3
:102F300007FD0348006804640A20FDF701FD70BD29
:102F4000D400002000BFFEE70FB4084B10B504A961
:102F500002AA039800F0DEF8044602A9002000F05F
:102F600070FC204610BC5DF814FB000043380008DC
:102F700002E008C8121F08C1002AFAD17047704742
:102F8000002001E001C1121F002AFBD170470000A0
:102F90002DE9FF5F82B00021DDE90430020DDDF88C
:102FA00040B0034318D044F61050A2F2FF3242431F
:102FB0001514119801281FD0A5EB0B00401C5FEAE7
:102FC000000A4FF000064E4FDFF83891B0465046E9
:102FD00015D5CAF1000413E0119801244AA3012871
:102FE00001D16FEA0B010298119AC0E90031C0E9E2
:102FF000024206B0BDE8F09FCBF10000DFE70446D7
:103000000021404A491842EB0450CDE9001012E07B
:10301000E00707D032463B4640464946FDF722FAD4
:103020008046894632463B4610461946FDF71AFA55
:1030300006460F466410002CEAD1DDE90401DDE903
:103040000023BAF1000F06DAFDF70CFA42464B46B0
:10305000FDF708FA05E0FDF777FA42464B46FDF723
:1030600073FA04460E460022284BFDF7F5FA03D802
:103070004FF0FF30014607E00022254B2046314645
:10308000FDF749F9FDF7CFFA102409E0002C0ADB1F
:103090000A220023FDF79CF8039B30321A55641E68
:1030A00050EA0102F2D1641C039AC4F111031444E2
:1030B000119A012A03D0012208430DD10AE00843E6
:1030C00004D000204FF0110B119072E7A3EB0B0519
:1030D0006D1E0DE05B4504DD4FF0000205F10105BA
:1030E00004E003DA4FF00002A5F10105002AECD05C
:1030F00002981199C0E90231C0E9004579E7000062
:10310000000014400000F03F300000000000F043D9
:103110000000E03F2DE9FF4F95B09B4689460646EB
:1031200000250FE2252877D100242746F84A0121FF
:10313000059400E0044316F8013F203B01FA03F038
:103140001042F7D130782A2811D06FF02F03307851
:10315000A0F13002092A16D8059A44F0020402EBC5
:10316000820203EB42021044761C0590EFE759F807
:10317000042B0592002A03DA504244F400540590CF
:1031800044F00204761C30782E2816D116F8010F70
:1031900044F004042A280DD06FF02F023078A0F1FB
:1031A0003003092B09D807EB870302EB4303C71849
:1031B000761CF3E759F8047B761C30786C280FD026
:1031C00006DC4C2817D068280DD06A2814D104E0FA
:1031D000742810D07A280FD10DE044F400140AE0CE
:1031E00044F4801401E044F440147278824202D125
:1031F00004F58014761C761C307866280BD013DC1E
:10320000582877D009DC002875D04528F6D0462804
:10321000F4D047281AD19DE118E0632835D06428FE
:1032200079D0652812D195E1702873D008DC672821
:10323000F1D069286FD06E280DD06F2806D1B5E087
:1032400073282CD0752875D0782874D05A461799D1
:1032500090476D1C75E1C4F30250022809D0032881
:103260000DD0D9F8001004280DD00D6009F1040923
:1032700067E1D9F80010EA17C1E90052F6E7D9F87A
:1032800000100D80F2E70D70F0E719F8041B8DF8BF
:10329000001000208DF80100EA46012003E059F8F3
:1032A00004AB4FF0FF3061074FF0000102D40DE096
:1032B00008F101018846B9420FDA8045F8DB1AF8B7
:1032C00008100029F4D108E008F101018846814284
:1032D000FADB1AF808100029F6D105985B46A0EB36
:1032E000080721463846179A00F094FA284400EB64
:1032F000080507E04DE029E10DE01AF8010B5A46F8
:1033000017999047B8F10108F7D25B462146384635
:10331000179A13E142E00A220092C4F302524FF0DE
:10332000000A022A08D059F804CB032A4FEAEC71AC
:103330000AD00DE029E02AE009F1070121F0070297
:10334000F2E802C1914609E00FFA8CFC4FEAEC71F9
:10335000042A03D14FFA8CFC4FEAEC71002907DAFA
:103360000A460021DCF1000C61EB02012D2202E093
:10337000220504D52B228DF80420012203E0E20768
:1033800001D02022F7E7904659E00A2102E01022FE
:103390000DE010214FF0000A00910BE010224FF0D9
:1033A000000A44F004040827009203E008224FF0CA
:1033B000000A0092C4F30252022A05D059F804CB45
:1033C0000021032A08D009E009F1070121F00702D2
:1033D000F2E802C1914605E01FFA8CFC042A01D1F3
:1033E0000CF0FF0C4FF00008220728D5702806D0FB
:1033F000009B83F0100353EA0A0305D00EE040223D
:103400008DF80420012208E05CEA010206D0302297
:103410008DF804208DF8050002229046009B83F071
:10342000080353EA0A030AD15CEA010201D16207E8
:1034300005D530228DF804204FF001087F1E582852
:1034400004D034A003900EA802900DE036A0F9E756
:1034500053466046009AFCF7BBFE84460398825CA4
:103460000298401E029002705CEA0100F0D10298BE
:1034700006A9081A00F1200A600702D524F4803456
:1034800000E00127574502DDA7EB0A0000E000201D
:1034900000EB0A01009005984144401A0590E003B2
:1034A00006D45B462146179A059800F0B3F9054407
:1034B000002706E001A85A46C05D179990476D1C89
:1034C0007F1C4745F6DBE0030CD55B462146179A87
:1034D000059800F09FF9054404E030205A461799FA
:1034E00090476D1C0099481E00900029F5DC08E00B
:1034F000029802995A460078491C02911799904700
:103500006D1CBAF10001AAF1010AF1DC65E10000CD
:1035100009280100303132333435363738396162A9
:10352000636465660000000030313233343536376D
:1035300038394142434445460000000000F058F944
:103540000544761C307800287FF4ECAD19B028468D
:10355000BDE8F08F620700D4062709F1070222F0C8
:10356000070CFCE80223E14603F000485FEA080C80
:1035700002D00FF2702C0DE05FEA045C02D50FF26E
:10358000682C07E05FEAC47C02D00FF2602C01E0F7
:10359000AFF2700C4FF0FF3823F00043CDF850C06D
:1035A00065280CD006DC452809D046281DD04728C0
:1035B0003DD13DE0662818D067287ED138E0002153
:1035C000112F01DB112000E0781CCDE9000106A9D4
:1035D0000EA8FFF7DDFCDDE90F010E9A0391002133
:1035E000009207F1010A04914DE04FF0004000976E
:1035F000CDE9011006A90EA8FFF7CAFCDDE90F020C
:1036000003920E9B11990022DDF80CA00093049206
:1036100011B9791C00EB010AB7EB0A0004D4C0F120
:10362000FF3007F1010A0490AAEB0700019044E083
:10363000012F00DA01270021112F01DD112000E008
:103640003846CDE9000106A90EA8FFF7A1FCDDE987
:103650000F010E9A0391002104910092BA462107AE
:103660000CD40399514500DA8A46BAF1010F05DD01
:10367000009AAAF10101515C302908D0B84202DA5F
:1036800010F1040F06DA0121CDE9011015E0AAF1CD
:103690000101E9E7002805DC049901440491AAEB43
:1036A000000102E0411C514500DD8A460499401AA0
:1036B000401C01904FF000400290200704D4019874
:1036C000504501DBCDF8048000208DF84F000298B2
:1036D0000DF14F07B0F1004F25D02B200E9002982E
:1036E0004FF0020800280CDA404202902D200E9084
:1036F00007E00A210298FCF7D9FD3031029007F863
:10370000011DB8F10001A8F10108F2DC02980028BF
:10371000EFD1791E0E980870307800F0200040F04C
:10372000450007F8020D12A8C01B00F10708149805
:10373000007800B1012000EB0A01019801EBE07173
:1037400005984144401A401E0590E00306D45B46AC
:103750002146179A059800F05DF805441498007802
:1037600018B15A46179990476D1CE00324D55B4663
:103770002146179A059800F04DF805441CE004987E
:10378000002807DBDDE90301884203DD0098405C87
:10379000179901E0179930205A469047049805F18F
:1037A0000105401C04900198401E019004D12E2078
:1037B0005A46179990476D1CBAF10001AAF1010A07
:1037C000DDDC05E017F8010B5A46179990476D1C90
:1037D000B8F10001A8F10108F4DC5B462146179A14
:1037E0000598ABE62D0000002B0000002000000033
:1037F0002DE9F041044600251E461746880404D4EE
:1038000005E039462020B0476D1C641EF9D52846D6
:10381000BDE8F0812DE9F041044600251E469046A2
:10382000C80301D5302700E02027880404D505E02F
:1038300041463846B0476D1C641EF9D52846BDE8A0
:10384000F0810A68531C0B601070704770B5064613
:103850000C46154623E02D2E07D0114800688663DC
:103860001E20FDF76DF8761C12E03B2D07D00C48AA
:10387000006805641E20FDF763F86D1C08E0342C19
:1038800006D007480068C4631E20FDF759F8641C81
:103890002D2E04D13B2D02D1342C00D170BDDAE79E
:1038A000D400002070B506460C46154629E0192EB6
:1038B00007D01448006886631E20FDF741F8761E85
:1038C0001FE01C2C07D00F480068C4631E20FDF7C2
:1038D00037F8641E15E0322D07D00A4800680564E9
:1038E0001E20FDF72DF86D1E0BE0192E09D11C2CA2
:1038F00007D1322D05D12A4621463046FFF7A6FFD3
:1039000070BDD4E7D400002070B504460D461646BD
:1039100028E0232E07D01448006806641E20FDF717
:103920000FF8761E12E01C2D07D00F480068C56303
:103930001E20FDF705F86D1E08E0192C06D00A4878
:10394000006884631E20FCF7FBFF641E192C09D15C
:103950001C2D07D1232E05D1324629462046FFF7DC
:1039600075FF70BDD5E70000D400002010B50446F7
:103970000348006884631420FCF7E2FF10BD0000D8
:10398000D400002010B504460348006844630A20B0
:10399000FCF7D6FF10BD0000D400002010B5802039
:1039A00000F056F803A000F097F86420FCF7C8FF79
:1039B00010BD00004D414E55414C204D4F44450037
:1039C00010B52DED048BB0EE408A18EE100AFCF70E
:1039D00042FC41EC190B53EC192B08A10B48FFF7E3
:1039E000B3FAC02000F034F8084800F075F832202F
:1039F000FCF7A6FFBDEC048B10BD00006469737476
:103A0000616E63653A252E326600000034000020A6
:103A100070B505460C4606480068C5630A20FCF7E9
:103A20008FFF0348006804640A20FCF789FF70BD1B
:103A3000D400002010B5022000F00AF8282000F081
:103A400007F80C2000F004F8802000F001F810BD09
:103A50007CB5044604F0F005F02000EA041645F0B9
:103A60000C008DF8040045F008008DF8050046F0C4
:103A70000C008DF8060046F008008DF80700642061
:103A8000042301AA4E2100900148FDF709F97CBDED
:103A9000440000207CB5044604F0F005F02000EA64
:103AA000041645F00D008DF8040045F009008DF86E
:103AB000050046F00D008DF8060046F009008DF86F
:103AC00007006420042301AA4E2100900148FDF75D
:103AD000E7F87CBD4400002010B5044603E014F86C
:103AE000010BFFF7D7FF20780028F8D110BD0000A8
:103AF000FDF7F0F9FEF76EFDFEF7A0FBFEF7BEFC4A
:103B0000FEF726FDFEF728FCFEF75CFCFEF706FC40
:103B1000FFF790FF1B48FDF7E3FE1B48FDF7E0FEB3
:103B200000211848FEF732F904211748FEF70BF878
:103B300000211648FEF72AF904211448FEF726F959
:103B400008211248FEF722F90C211048FEF71EF951
:103B500003200F4908600F4803680F4802680F48A8
:103B600001680F48006800F0F5F80120FFF770FFCA
:103B70004FF4FA70FCF7E4FEFFF710FF01E000F0ED
:103B800011F8FCE71001002098000020D40000206C
:103B900034480140180000201400002010000020CC
:103BA0000C00002010B540216548FCF7D7FF012824
:103BB0000CD164480068192808DD62480068FFF7E6
:103BC000E1FE60480068401E5E49086080215C4854
:103BD000FCF7C4FF01280CD15A4800687E2808DA97
:103BE00058480068FFF7CEFE56480068401C55490B
:103BF000086001215248FCF7B1FF01280ED152485C
:103C0000006837280ADA514801684F480068FFF712
:103C100087F94D480068401C4B490860022148481C
:103C2000FCF79CFF012827D147480068192823DDAD
:103C300046480068282814DA43480068282810DA23
:103C40004248016840480068FFF76AF93E4800684A
:103C5000401E3D4908603D480068401C3B490860E3
:103C60000AE03A48016838480068FFF759F93648D1
:103C70000068401E3449086004213148FCF76EFF9B
:103C800001280ED1314800683D280ADA2F48016822
:103C90002D480068FFF7BCFE2C480068401C2B49EB
:103CA000086008212648FCF759FF012828D1274839
:103CB0000068192824DD25480068362814DA2248CF
:103CC0000068232810DA214801681F480068FFF7C0
:103CD0009FFE1D480068401C1B4908601B48006887
:103CE000401E1A4908602AE0184801681648006812
:103CF000FFF78EFE15480068401E144908601EE05C
:103D00004FF480710E48FCF729FF012817D11048A5
:103D10000068012806D12D20FFF728FE00200C495D
:103D2000086008E00A48006828B91920FFF71EFE5D
:103D30000120074908604FF4FA70FCF701FE10BD3E
:103D4000000802400C000020140000201800002091
:103D50001C0000202DE9F04107460C4615461E4682
:103D60000C48006847633220FCF7EAFD0948006808
:103D700084633220FCF7E4FD06480068C563322006
:103D8000FCF7DEFD0348006806643220FCF7D8FD2E
:103D9000BDE8F081D4000020000000000000000019
:103DA00001020304060708090000000001020304E1
:103DB000D03D00080000002034000000702F0008F3
:103DC000043E0008340000205C050000802F00083D
:103DD000000000000000000000000000480000009B
:103DE0002D000000340000003B0000000000000037
:103DF00000000000000000001000000001000000B2
:043E00000024F400A6
:040000050800019955
:00000001FF
